{
  "_format": "hh-sol-artifact-1",
  "contractName": "InvoiceEscrow",
  "sourceName": "contracts/InvoiceEscrow.sol",
  "abi": [
    {
      "inputs": [
        {
          "internalType": "address",
          "name": "_invoiceToken",
          "type": "address"
        }
      ],
      "stateMutability": "nonpayable",
      "type": "constructor"
    },
    {
      "inputs": [
        {
          "internalType": "address",
          "name": "owner",
          "type": "address"
        }
      ],
      "name": "OwnableInvalidOwner",
      "type": "error"
    },
    {
      "inputs": [
        {
          "internalType": "address",
          "name": "account",
          "type": "address"
        }
      ],
      "name": "OwnableUnauthorizedAccount",
      "type": "error"
    },
    {
      "inputs": [],
      "name": "ReentrancyGuardReentrantCall",
      "type": "error"
    },
    {
      "anonymous": false,
      "inputs": [
        {
          "indexed": true,
          "internalType": "address",
          "name": "owner",
          "type": "address"
        },
        {
          "indexed": false,
          "internalType": "uint256",
          "name": "amount",
          "type": "uint256"
        }
      ],
      "name": "FeeWithdrawn",
      "type": "event"
    },
    {
      "anonymous": false,
      "inputs": [
        {
          "indexed": true,
          "internalType": "uint256",
          "name": "tokenId",
          "type": "uint256"
        }
      ],
      "name": "InvoiceDefaulted",
      "type": "event"
    },
    {
      "anonymous": false,
      "inputs": [
        {
          "indexed": true,
          "internalType": "uint256",
          "name": "tokenId",
          "type": "uint256"
        },
        {
          "indexed": true,
          "internalType": "address",
          "name": "investor",
          "type": "address"
        },
        {
          "indexed": false,
          "internalType": "uint256",
          "name": "advanceAmount",
          "type": "uint256"
        }
      ],
      "name": "InvoiceFunded",
      "type": "event"
    },
    {
      "anonymous": false,
      "inputs": [
        {
          "indexed": true,
          "internalType": "uint256",
          "name": "tokenId",
          "type": "uint256"
        },
        {
          "indexed": true,
          "internalType": "address",
          "name": "sme",
          "type": "address"
        },
        {
          "indexed": false,
          "internalType": "uint256",
          "name": "invoiceAmount",
          "type": "uint256"
        },
        {
          "indexed": false,
          "internalType": "uint256",
          "name": "advanceAmount",
          "type": "uint256"
        }
      ],
      "name": "InvoiceListed",
      "type": "event"
    },
    {
      "anonymous": false,
      "inputs": [
        {
          "indexed": true,
          "internalType": "uint256",
          "name": "tokenId",
          "type": "uint256"
        },
        {
          "indexed": true,
          "internalType": "address",
          "name": "investor",
          "type": "address"
        },
        {
          "indexed": false,
          "internalType": "uint256",
          "name": "payout",
          "type": "uint256"
        },
        {
          "indexed": false,
          "internalType": "uint256",
          "name": "fee",
          "type": "uint256"
        }
      ],
      "name": "InvoiceSettled",
      "type": "event"
    },
    {
      "anonymous": false,
      "inputs": [
        {
          "indexed": true,
          "internalType": "address",
          "name": "previousOwner",
          "type": "address"
        },
        {
          "indexed": true,
          "internalType": "address",
          "name": "newOwner",
          "type": "address"
        }
      ],
      "name": "OwnershipTransferred",
      "type": "event"
    },
    {
      "inputs": [],
      "name": "FEE_BPS",
      "outputs": [
        {
          "internalType": "uint256",
          "name": "",
          "type": "uint256"
        }
      ],
      "stateMutability": "view",
      "type": "function"
    },
    {
      "inputs": [],
      "name": "accumulatedFees",
      "outputs": [
        {
          "internalType": "uint256",
          "name": "",
          "type": "uint256"
        }
      ],
      "stateMutability": "view",
      "type": "function"
    },
    {
      "inputs": [
        {
          "internalType": "uint256",
          "name": "",
          "type": "uint256"
        }
      ],
      "name": "escrowEntries",
      "outputs": [
        {
          "internalType": "uint256",
          "name": "advanceAmount",
          "type": "uint256"
        },
        {
          "internalType": "uint256",
          "name": "invoiceAmount",
          "type": "uint256"
        },
        {
          "internalType": "address payable",
          "name": "investor",
          "type": "address"
        },
        {
          "internalType": "address payable",
          "name": "sme",
          "type": "address"
        },
        {
          "internalType": "uint256",
          "name": "dueDate",
          "type": "uint256"
        },
        {
          "internalType": "bool",
          "name": "funded",
          "type": "bool"
        }
      ],
      "stateMutability": "view",
      "type": "function"
    },
    {
      "inputs": [
        {
          "internalType": "uint256",
          "name": "tokenId",
          "type": "uint256"
        }
      ],
      "name": "expectedReturnBps",
      "outputs": [
        {
          "internalType": "uint256",
          "name": "",
          "type": "uint256"
        }
      ],
      "stateMutability": "view",
      "type": "function"
    },
    {
      "inputs": [
        {
          "internalType": "uint256",
          "name": "tokenId",
          "type": "uint256"
        }
      ],
      "name": "fundInvoice",
      "outputs": [],
      "stateMutability": "payable",
      "type": "function"
    },
    {
      "inputs": [],
      "name": "invoiceToken",
      "outputs": [
        {
          "internalType": "contract InvoiceToken",
          "name": "",
          "type": "address"
        }
      ],
      "stateMutability": "view",
      "type": "function"
    },
    {
      "inputs": [
        {
          "internalType": "uint256",
          "name": "invoiceAmount",
          "type": "uint256"
        },
        {
          "internalType": "uint256",
          "name": "dueDate",
          "type": "uint256"
        },
        {
          "internalType": "bytes32",
          "name": "invoiceHash",
          "type": "bytes32"
        },
        {
          "internalType": "uint8",
          "name": "riskScore",
          "type": "uint8"
        },
        {
          "internalType": "uint256",
          "name": "advanceRateBps",
          "type": "uint256"
        },
        {
          "internalType": "address",
          "name": "paymentDest",
          "type": "address"
        }
      ],
      "name": "listInvoice",
      "outputs": [],
      "stateMutability": "nonpayable",
      "type": "function"
    },
    {
      "inputs": [
        {
          "internalType": "uint256",
          "name": "tokenId",
          "type": "uint256"
        }
      ],
      "name": "markDefault",
      "outputs": [],
      "stateMutability": "nonpayable",
      "type": "function"
    },
    {
      "inputs": [],
      "name": "owner",
      "outputs": [
        {
          "internalType": "address",
          "name": "",
          "type": "address"
        }
      ],
      "stateMutability": "view",
      "type": "function"
    },
    {
      "inputs": [],
      "name": "renounceOwnership",
      "outputs": [],
      "stateMutability": "nonpayable",
      "type": "function"
    },
    {
      "inputs": [
        {
          "internalType": "uint256",
          "name": "tokenId",
          "type": "uint256"
        }
      ],
      "name": "simulateBuyerPayment",
      "outputs": [],
      "stateMutability": "payable",
      "type": "function"
    },
    {
      "inputs": [
        {
          "internalType": "address",
          "name": "newOwner",
          "type": "address"
        }
      ],
      "name": "transferOwnership",
      "outputs": [],
      "stateMutability": "nonpayable",
      "type": "function"
    },
    {
      "inputs": [],
      "name": "withdrawFee",
      "outputs": [],
      "stateMutability": "nonpayable",
      "type": "function"
    },
    {
      "stateMutability": "payable",
      "type": "receive"
    }
  ],
  "bytecode": "0x60a060405234801561000f575f80fd5b50604051620019e0380380620019e0833981016040819052610030916100e3565b338061005557604051631e4fbdf760e01b81525f600482015260240160405180910390fd5b61005e81610094565b5060017f9b779b17422d0df92223018b32b4d1fa46e071723d6817e2486d003becc55f00556001600160a01b0316608052610110565b5f80546001600160a01b038381166001600160a01b0319831681178455604051919092169283917f8be0079c531659141344cd1fd0a4f28419497f9722a3daafe3b4186f6b6457e09190a35050565b5f602082840312156100f3575f80fd5b81516001600160a01b0381168114610109575f80fd5b9392505050565b60805161187f620001615f395f81816101100152818161042c0152818161065c015281816106ed01528181610adb01528181610cb401528181610f51015281816110fb01526112b3015261187f5ff3fe6080604052600436106100c2575f3560e01c8063715438c61161007c578063bf333f2c11610057578063bf333f2c14610271578063e1d927c814610285578063e941fa78146102a4578063f2fde38b146102b8575f80fd5b8063715438c6146102235780638da5cb5b146102425780639fd5d2781461025e575f80fd5b806323be7cee146100cd578063464b5391146100ff578063561c00651461014a578063587f5ed7146101e557806364d5fa47146101fa578063715018a61461020f575f80fd5b366100c957005b5f80fd5b3480156100d8575f80fd5b506100ec6100e73660046115c7565b6102d7565b6040519081526020015b60405180910390f35b34801561010a575f80fd5b506101327f000000000000000000000000000000000000000000000000000000000000000081565b6040516001600160a01b0390911681526020016100f6565b348015610155575f80fd5b506101a96101643660046115c7565b600260208190525f91825260409091208054600182015492820154600383015460048401546005909401549294936001600160a01b0392831693929091169160ff1686565b6040805196875260208701959095526001600160a01b0393841694860194909452911660608401526080830152151560a082015260c0016100f6565b3480156101f0575f80fd5b506100ec60015481565b61020d6102083660046115c7565b6103fe565b005b34801561021a575f80fd5b5061020d61085b565b34801561022e575f80fd5b5061020d61023d366004611600565b61086e565b34801561024d575f80fd5b505f546001600160a01b0316610132565b61020d61026c3660046115c7565b610c86565b34801561027c575f80fd5b506100ec606481565b348015610290575f80fd5b5061020d61029f3660046115c7565b6110cd565b3480156102af575f80fd5b5061020d611347565b3480156102c3575f80fd5b5061020d6102d236600461165a565b6114c8565b5f818152600260208181526040808420815160c0810183528154808252600183015494820194909452938101546001600160a01b039081169285019290925260038101549091166060840152600481015460808401526005015460ff16151560a083015261038c5760405162461bcd60e51b815260206004820181905260248201527f496e766f696365457363726f773a20696e766f696365206e6f7420666f756e6460448201526064015b60405180910390fd5b5f612710606483602001516103a19190611690565b6103ab91906116ad565b90505f8183602001516103be91906116cc565b835190915081116103d357505f949350505050565b82516103df81836116cc565b6103eb90612710611690565b6103f591906116ad565b95945050505050565b610406611502565b5f818152600260205260408082209051631d11e60560e11b8152600481018490529091907f00000000000000000000000000000000000000000000000000000000000000006001600160a01b031690633a23cc0a9060240161010060405180830381865afa15801561047a573d5f803e3d5ffd5b505050506040513d601f19601f8201168201806040525081019061049e9190611708565b600583015490915060ff16156104f65760405162461bcd60e51b815260206004820152601d60248201527f496e766f696365457363726f773a20616c72656164792066756e6465640000006044820152606401610383565b5f8160e00151600381111561050d5761050d6117bb565b146105645760405162461bcd60e51b815260206004820152602160248201527f496e766f696365457363726f773a20696e766f696365206e6f74206c697374656044820152601960fa1b6064820152608401610383565b815434146105c95760405162461bcd60e51b815260206004820152602c60248201527f496e766f696365457363726f773a20696e636f727265637420616476616e636560448201526b08185b5bdd5b9d081cd95b9d60a21b6064820152608401610383565b816004015442106106275760405162461bcd60e51b815260206004820152602260248201527f496e766f696365457363726f773a20696e766f69636520697320706173742064604482015261756560f01b6064820152608401610383565b60058201805460ff191660011790556002820180546001600160a01b031916339081179091556040516364ea3fc760e01b81527f00000000000000000000000000000000000000000000000000000000000000006001600160a01b0316916364ea3fc7916106ab9187916004019182526001600160a01b0316602082015260400190565b5f604051808303815f87803b1580156106c2575f80fd5b505af11580156106d4573d5f803e3d5ffd5b5050604051633625b75960e21b81526001600160a01b037f000000000000000000000000000000000000000000000000000000000000000016925063d896dd6491506107279086906001906004016117cf565b5f604051808303815f87803b15801561073e575f80fd5b505af1158015610750573d5f803e3d5ffd5b50505050600382015482546040515f926001600160a01b031691908381818185875af1925050503d805f81146107a1576040519150601f19603f3d011682016040523d82523d5f602084013e6107a6565b606091505b50509050806108065760405162461bcd60e51b815260206004820152602660248201527f496e766f696365457363726f773a20534d452064697362757273656d656e742060448201526519985a5b195960d21b6064820152608401610383565b8254604051908152339085907fa89eb6891733765ee1680954e6c13fbca417ad37abee83d50d8efdb86a6db5239060200160405180910390a350505061085860015f8051602061182a83398151915255565b50565b61086361151d565b61086c5f611549565b565b6001600160a01b03811630146108df5760405162461bcd60e51b815260206004820152603060248201527f496e766f696365457363726f773a207061796d656e7444657374206d7573742060448201526f1899481d1a1a5cc818dbdb9d1c9858dd60821b6064820152608401610383565b5f86116109405760405162461bcd60e51b815260206004820152602960248201527f496e766f696365457363726f773a20696e766f69636520616d6f756e74206d7560448201526807374206265203e20360bc1b6064820152608401610383565b4285116109a55760405162461bcd60e51b815260206004820152602d60248201527f496e766f696365457363726f773a206475652064617465206d7573742062652060448201526c696e207468652066757475726560981b6064820152608401610383565b5f821180156109b657506127108211155b610a0e5760405162461bcd60e51b815260206004820152602360248201527f496e766f696365457363726f773a20696e76616c696420616476616e6365207260448201526261746560e81b6064820152608401610383565b60328360ff161015610a7c5760405162461bcd60e51b815260206004820152603160248201527f496e766f696365457363726f773a2073636f72652062656c6f77206d696e696d604482015270756d207468726573686f6c64202835302960781b6064820152608401610383565b5f612710610a8a8489611690565b610a9491906116ad565b604051636d73164760e11b81523360048201526024810189905260448101829052606481018890526084810187905260ff861660a48201529091505f906001600160a01b037f0000000000000000000000000000000000000000000000000000000000000000169063dae62c8e9060c4016020604051808303815f875af1158015610b21573d5f803e3d5ffd5b505050506040513d601f19601f82011682018060405250810190610b4591906117ff565b90506040518060c001604052808381526020018981526020015f6001600160a01b03168152602001336001600160a01b031681526020018881526020015f151581525060025f8381526020019081526020015f205f820151815f0155602082015181600101556040820151816002015f6101000a8154816001600160a01b0302191690836001600160a01b031602179055506060820151816003015f6101000a8154816001600160a01b0302191690836001600160a01b031602179055506080820151816004015560a0820151816005015f6101000a81548160ff021916908315150217905550905050336001600160a01b0316817fa76a974e37c5eb1e2bba12d1f878d970bfe4b450010d94898f6ab41041e642538a85604051610c74929190918252602082015260400190565b60405180910390a35050505050505050565b610c8e611502565b5f818152600260205260408082209051631d11e60560e11b8152600481018490529091907f00000000000000000000000000000000000000000000000000000000000000006001600160a01b031690633a23cc0a9060240161010060405180830381865afa158015610d02573d5f803e3d5ffd5b505050506040513d601f19601f82011682018060405250810190610d269190611708565b600583015490915060ff16610d8b5760405162461bcd60e51b815260206004820152602560248201527f496e766f696365457363726f773a20696e766f696365206e6f742079657420666044820152641d5b99195960da1b6064820152608401610383565b60018160e001516003811115610da357610da36117bb565b14610e035760405162461bcd60e51b815260206004820152602a60248201527f496e766f696365457363726f773a20696e766f696365206e6f7420696e2046556044820152694e44454420737461746560b01b6064820152608401610383565b5f546001600160a01b0316331480610e1f575081600401544210155b610e885760405162461bcd60e51b815260206004820152603460248201527f496e766f696365457363726f773a206f6e6c79206f776e65722063616e20736560448201527374746c65206265666f726520647565206461746560601b6064820152608401610383565b81600101543414610ef05760405162461bcd60e51b815260206004820152602c60248201527f496e766f696365457363726f773a206d7573742073656e642066756c6c20696e60448201526b1d9bda58d948185b5bdd5b9d60a21b6064820152608401610383565b5f61271060648460010154610f059190611690565b610f0f91906116ad565b90505f818460010154610f2291906116cc565b90508160015f828254610f359190611816565b9091555050604051633625b75960e21b81526001600160a01b037f0000000000000000000000000000000000000000000000000000000000000000169063d896dd6490610f899088906002906004016117cf565b5f604051808303815f87803b158015610fa0575f80fd5b505af1158015610fb2573d5f803e3d5ffd5b5050505060028401546040515f916001600160a01b03169083908381818185875af1925050503d805f8114611002576040519150601f19603f3d011682016040523d82523d5f602084013e611007565b606091505b50509050806110665760405162461bcd60e51b815260206004820152602560248201527f496e766f696365457363726f773a20696e766573746f72207061796f75742066604482015264185a5b195960da1b6064820152608401610383565b600285015460408051848152602081018690526001600160a01b039092169188917fea27f609b222b8444be90dcc68af4a864c0214c964892f8323ebbb211adf25e6910160405180910390a3505050505061085860015f8051602061182a83398151915255565b6110d561151d565b5f818152600260205260408082209051631d11e60560e11b8152600481018490529091907f00000000000000000000000000000000000000000000000000000000000000006001600160a01b031690633a23cc0a9060240161010060405180830381865afa158015611149573d5f803e3d5ffd5b505050506040513d601f19601f8201168201806040525081019061116d9190611708565b600583015490915060ff166111ce5760405162461bcd60e51b815260206004820152602160248201527f496e766f696365457363726f773a20696e766f696365206e6f742066756e64656044820152601960fa1b6064820152608401610383565b60018160e0015160038111156111e6576111e66117bb565b1461123e5760405162461bcd60e51b815260206004820152602260248201527f496e766f696365457363726f773a206e6f7420696e2046554e44454420737461604482015261746560f01b6064820152608401610383565b8160040154421161129c5760405162461bcd60e51b815260206004820152602260248201527f496e766f696365457363726f773a206475652064617465206e6f742070617373604482015261195960f21b6064820152608401610383565b604051633625b75960e21b81526001600160a01b037f0000000000000000000000000000000000000000000000000000000000000000169063d896dd64906112eb9086906003906004016117cf565b5f604051808303815f87803b158015611302575f80fd5b505af1158015611314573d5f803e3d5ffd5b50506040518592507fdad3d8c24c5e0a13ffb0c0fa573014d3c4ba10367d5cba3549fa7c9ac18b93a491505f90a2505050565b61134f61151d565b611357611502565b600154806113b25760405162461bcd60e51b815260206004820152602260248201527f496e766f696365457363726f773a206e6f206665657320746f20776974686472604482015261617760f01b6064820152608401610383565b5f600181905580546040516001600160a01b039091169083908381818185875af1925050503d805f8114611401576040519150601f19603f3d011682016040523d82523d5f602084013e611406565b606091505b50509050806114635760405162461bcd60e51b8152602060048201526024808201527f496e766f696365457363726f773a20666565207769746864726177616c2066616044820152631a5b195960e21b6064820152608401610383565b5f546001600160a01b03166001600160a01b03167f78473f3f373f7673597f4f0fa5873cb4d375fea6d4339ad6b56dbd411513cb3f836040516114a891815260200190565b60405180910390a2505061086c60015f8051602061182a83398151915255565b6114d061151d565b6001600160a01b0381166114f957604051631e4fbdf760e01b81525f6004820152602401610383565b61085881611549565b61150a611598565b60025f8051602061182a83398151915255565b5f546001600160a01b0316331461086c5760405163118cdaa760e01b8152336004820152602401610383565b5f80546001600160a01b038381166001600160a01b0319831681178455604051919092169283917f8be0079c531659141344cd1fd0a4f28419497f9722a3daafe3b4186f6b6457e09190a35050565b5f8051602061182a8339815191525460020361086c57604051633ee5aeb560e01b815260040160405180910390fd5b5f602082840312156115d7575f80fd5b5035919050565b60ff81168114610858575f80fd5b6001600160a01b0381168114610858575f80fd5b5f805f805f8060c08789031215611615575f80fd5b8635955060208701359450604087013593506060870135611635816115de565b92506080870135915060a087013561164c816115ec565b809150509295509295509295565b5f6020828403121561166a575f80fd5b8135611675816115ec565b9392505050565b634e487b7160e01b5f52601160045260245ffd5b80820281158282048414176116a7576116a761167c565b92915050565b5f826116c757634e487b7160e01b5f52601260045260245ffd5b500490565b818103818111156116a7576116a761167c565b80516116ea816115ec565b919050565b80516116ea816115de565b8051600481106116ea575f80fd5b5f61010080838503121561171a575f80fd5b6040519081019067ffffffffffffffff8211818310171561174957634e487b7160e01b5f52604160045260245ffd5b81604052835181526020840151602082015260408401516040820152611771606085016116df565b6060820152611782608085016116df565b608082015260a084015160a082015261179d60c085016116ef565b60c08201526117ae60e085016116fa565b60e0820152949350505050565b634e487b7160e01b5f52602160045260245ffd5b82815260408101600483106117f257634e487b7160e01b5f52602160045260245ffd5b8260208301529392505050565b5f6020828403121561180f575f80fd5b5051919050565b808201808211156116a7576116a761167c56fe9b779b17422d0df92223018b32b4d1fa46e071723d6817e2486d003becc55f00a26469706673582212205affc4c4cd07bc9a46f8a30312552ab1da586c930b76baedf49c6a499099df8964736f6c63430008180033",
  "linkReferences": {},
  "deployedLinkReferences": {}
}