{
  "_format": "hh-sol-artifact-1",
  "contractName": "InvoiceToken",
  "sourceName": "contracts/InvoiceToken.sol",
  "abi": [
    {
      "inputs": [],
      "stateMutability": "nonpayable",
      "type": "constructor"
    },
    {
      "inputs": [
        {
          "internalType": "address",
          "name": "sender",
          "type": "address"
        },
        {
          "internalType": "uint256",
          "name": "tokenId",
          "type": "uint256"
        },
        {
          "internalType": "address",
          "name": "owner",
          "type": "address"
        }
      ],
      "name": "ERC721IncorrectOwner",
      "type": "error"
    },
    {
      "inputs": [
        {
          "internalType": "address",
          "name": "operator",
          "type": "address"
        },
        {
          "internalType": "uint256",
          "name": "tokenId",
          "type": "uint256"
        }
      ],
      "name": "ERC721InsufficientApproval",
      "type": "error"
    },
    {
      "inputs": [
        {
          "internalType": "address",
          "name": "approver",
          "type": "address"
        }
      ],
      "name": "ERC721InvalidApprover",
      "type": "error"
    },
    {
      "inputs": [
        {
          "internalType": "address",
          "name": "operator",
          "type": "address"
        }
      ],
      "name": "ERC721InvalidOperator",
      "type": "error"
    },
    {
      "inputs": [
        {
          "internalType": "address",
          "name": "owner",
          "type": "address"
        }
      ],
      "name": "ERC721InvalidOwner",
      "type": "error"
    },
    {
      "inputs": [
        {
          "internalType": "address",
          "name": "receiver",
          "type": "address"
        }
      ],
      "name": "ERC721InvalidReceiver",
      "type": "error"
    },
    {
      "inputs": [
        {
          "internalType": "address",
          "name": "sender",
          "type": "address"
        }
      ],
      "name": "ERC721InvalidSender",
      "type": "error"
    },
    {
      "inputs": [
        {
          "internalType": "uint256",
          "name": "tokenId",
          "type": "uint256"
        }
      ],
      "name": "ERC721NonexistentToken",
      "type": "error"
    },
    {
      "inputs": [
        {
          "internalType": "address",
          "name": "owner",
          "type": "address"
        }
      ],
      "name": "OwnableInvalidOwner",
      "type": "error"
    },
    {
      "inputs": [
        {
          "internalType": "address",
          "name": "account",
          "type": "address"
        }
      ],
      "name": "OwnableUnauthorizedAccount",
      "type": "error"
    },
    {
      "anonymous": false,
      "inputs": [
        {
          "indexed": true,
          "internalType": "address",
          "name": "owner",
          "type": "address"
        },
        {
          "indexed": true,
          "internalType": "address",
          "name": "approved",
          "type": "address"
        },
        {
          "indexed": true,
          "internalType": "uint256",
          "name": "tokenId",
          "type": "uint256"
        }
      ],
      "name": "Approval",
      "type": "event"
    },
    {
      "anonymous": false,
      "inputs": [
        {
          "indexed": true,
          "internalType": "address",
          "name": "owner",
          "type": "address"
        },
        {
          "indexed": true,
          "internalType": "address",
          "name": "operator",
          "type": "address"
        },
        {
          "indexed": false,
          "internalType": "bool",
          "name": "approved",
          "type": "bool"
        }
      ],
      "name": "ApprovalForAll",
      "type": "event"
    },
    {
      "anonymous": false,
      "inputs": [
        {
          "indexed": true,
          "internalType": "uint256",
          "name": "tokenId",
          "type": "uint256"
        },
        {
          "indexed": true,
          "internalType": "address",
          "name": "sme",
          "type": "address"
        },
        {
          "indexed": false,
          "internalType": "uint256",
          "name": "invoiceAmount",
          "type": "uint256"
        }
      ],
      "name": "InvoiceMinted",
      "type": "event"
    },
    {
      "anonymous": false,
      "inputs": [
        {
          "indexed": true,
          "internalType": "address",
          "name": "previousOwner",
          "type": "address"
        },
        {
          "indexed": true,
          "internalType": "address",
          "name": "newOwner",
          "type": "address"
        }
      ],
      "name": "OwnershipTransferred",
      "type": "event"
    },
    {
      "anonymous": false,
      "inputs": [
        {
          "indexed": true,
          "internalType": "uint256",
          "name": "tokenId",
          "type": "uint256"
        },
        {
          "indexed": false,
          "internalType": "enum InvoiceToken.InvoiceStatus",
          "name": "newStatus",
          "type": "uint8"
        }
      ],
      "name": "StatusUpdated",
      "type": "event"
    },
    {
      "anonymous": false,
      "inputs": [
        {
          "indexed": true,
          "internalType": "address",
          "name": "from",
          "type": "address"
        },
        {
          "indexed": true,
          "internalType": "address",
          "name": "to",
          "type": "address"
        },
        {
          "indexed": true,
          "internalType": "uint256",
          "name": "tokenId",
          "type": "uint256"
        }
      ],
      "name": "Transfer",
      "type": "event"
    },
    {
      "inputs": [
        {
          "internalType": "address",
          "name": "to",
          "type": "address"
        },
        {
          "internalType": "uint256",
          "name": "tokenId",
          "type": "uint256"
        }
      ],
      "name": "approve",
      "outputs": [],
      "stateMutability": "nonpayable",
      "type": "function"
    },
    {
      "inputs": [
        {
          "internalType": "address",
          "name": "owner",
          "type": "address"
        }
      ],
      "name": "balanceOf",
      "outputs": [
        {
          "internalType": "uint256",
          "name": "",
          "type": "uint256"
        }
      ],
      "stateMutability": "view",
      "type": "function"
    },
    {
      "inputs": [],
      "name": "escrowContract",
      "outputs": [
        {
          "internalType": "address",
          "name": "",
          "type": "address"
        }
      ],
      "stateMutability": "view",
      "type": "function"
    },
    {
      "inputs": [
        {
          "internalType": "uint256",
          "name": "tokenId",
          "type": "uint256"
        }
      ],
      "name": "getApproved",
      "outputs": [
        {
          "internalType": "address",
          "name": "",
          "type": "address"
        }
      ],
      "stateMutability": "view",
      "type": "function"
    },
    {
      "inputs": [
        {
          "internalType": "uint256",
          "name": "tokenId",
          "type": "uint256"
        }
      ],
      "name": "getInvoice",
      "outputs": [
        {
          "components": [
            {
              "internalType": "uint256",
              "name": "invoiceAmount",
              "type": "uint256"
            },
            {
              "internalType": "uint256",
              "name": "advanceAmount",
              "type": "uint256"
            },
            {
              "internalType": "uint256",
              "name": "dueDate",
              "type": "uint256"
            },
            {
              "internalType": "address",
              "name": "smeWallet",
              "type": "address"
            },
            {
              "internalType": "address",
              "name": "investorWallet",
              "type": "address"
            },
            {
              "internalType": "bytes32",
              "name": "invoiceHash",
              "type": "bytes32"
            },
            {
              "internalType": "uint8",
              "name": "riskScore",
              "type": "uint8"
            },
            {
              "internalType": "enum InvoiceToken.InvoiceStatus",
              "name": "status",
              "type": "uint8"
            }
          ],
          "internalType": "struct InvoiceToken.Invoice",
          "name": "",
          "type": "tuple"
        }
      ],
      "stateMutability": "view",
      "type": "function"
    },
    {
      "inputs": [
        {
          "internalType": "uint256",
          "name": "",
          "type": "uint256"
        }
      ],
      "name": "invoices",
      "outputs": [
        {
          "internalType": "uint256",
          "name": "invoiceAmount",
          "type": "uint256"
        },
        {
          "internalType": "uint256",
          "name": "advanceAmount",
          "type": "uint256"
        },
        {
          "internalType": "uint256",
          "name": "dueDate",
          "type": "uint256"
        },
        {
          "internalType": "address",
          "name": "smeWallet",
          "type": "address"
        },
        {
          "internalType": "address",
          "name": "investorWallet",
          "type": "address"
        },
        {
          "internalType": "bytes32",
          "name": "invoiceHash",
          "type": "bytes32"
        },
        {
          "internalType": "uint8",
          "name": "riskScore",
          "type": "uint8"
        },
        {
          "internalType": "enum InvoiceToken.InvoiceStatus",
          "name": "status",
          "type": "uint8"
        }
      ],
      "stateMutability": "view",
      "type": "function"
    },
    {
      "inputs": [
        {
          "internalType": "address",
          "name": "owner",
          "type": "address"
        },
        {
          "internalType": "address",
          "name": "operator",
          "type": "address"
        }
      ],
      "name": "isApprovedForAll",
      "outputs": [
        {
          "internalType": "bool",
          "name": "",
          "type": "bool"
        }
      ],
      "stateMutability": "view",
      "type": "function"
    },
    {
      "inputs": [
        {
          "internalType": "address",
          "name": "smeWallet",
          "type": "address"
        },
        {
          "internalType": "uint256",
          "name": "invoiceAmount",
          "type": "uint256"
        },
        {
          "internalType": "uint256",
          "name": "advanceAmount",
          "type": "uint256"
        },
        {
          "internalType": "uint256",
          "name": "dueDate",
          "type": "uint256"
        },
        {
          "internalType": "bytes32",
          "name": "invoiceHash",
          "type": "bytes32"
        },
        {
          "internalType": "uint8",
          "name": "riskScore",
          "type": "uint8"
        }
      ],
      "name": "mint",
      "outputs": [
        {
          "internalType": "uint256",
          "name": "tokenId",
          "type": "uint256"
        }
      ],
      "stateMutability": "nonpayable",
      "type": "function"
    },
    {
      "inputs": [],
      "name": "name",
      "outputs": [
        {
          "internalType": "string",
          "name": "",
          "type": "string"
        }
      ],
      "stateMutability": "view",
      "type": "function"
    },
    {
      "inputs": [],
      "name": "owner",
      "outputs": [
        {
          "internalType": "address",
          "name": "",
          "type": "address"
        }
      ],
      "stateMutability": "view",
      "type": "function"
    },
    {
      "inputs": [
        {
          "internalType": "uint256",
          "name": "tokenId",
          "type": "uint256"
        }
      ],
      "name": "ownerOf",
      "outputs": [
        {
          "internalType": "address",
          "name": "",
          "type": "address"
        }
      ],
      "stateMutability": "view",
      "type": "function"
    },
    {
      "inputs": [],
      "name": "renounceOwnership",
      "outputs": [],
      "stateMutability": "nonpayable",
      "type": "function"
    },
    {
      "inputs": [
        {
          "internalType": "address",
          "name": "from",
          "type": "address"
        },
        {
          "internalType": "address",
          "name": "to",
          "type": "address"
        },
        {
          "internalType": "uint256",
          "name": "tokenId",
          "type": "uint256"
        }
      ],
      "name": "safeTransferFrom",
      "outputs": [],
      "stateMutability": "nonpayable",
      "type": "function"
    },
    {
      "inputs": [
        {
          "internalType": "address",
          "name": "from",
          "type": "address"
        },
        {
          "internalType": "address",
          "name": "to",
          "type": "address"
        },
        {
          "internalType": "uint256",
          "name": "tokenId",
          "type": "uint256"
        },
        {
          "internalType": "bytes",
          "name": "data",
          "type": "bytes"
        }
      ],
      "name": "safeTransferFrom",
      "outputs": [],
      "stateMutability": "nonpayable",
      "type": "function"
    },
    {
      "inputs": [
        {
          "internalType": "address",
          "name": "operator",
          "type": "address"
        },
        {
          "internalType": "bool",
          "name": "approved",
          "type": "bool"
        }
      ],
      "name": "setApprovalForAll",
      "outputs": [],
      "stateMutability": "nonpayable",
      "type": "function"
    },
    {
      "inputs": [
        {
          "internalType": "address",
          "name": "_escrow",
          "type": "address"
        }
      ],
      "name": "setEscrowContract",
      "outputs": [],
      "stateMutability": "nonpayable",
      "type": "function"
    },
    {
      "inputs": [
        {
          "internalType": "uint256",
          "name": "tokenId",
          "type": "uint256"
        },
        {
          "internalType": "address",
          "name": "investor",
          "type": "address"
        }
      ],
      "name": "setInvestor",
      "outputs": [],
      "stateMutability": "nonpayable",
      "type": "function"
    },
    {
      "inputs": [
        {
          "internalType": "uint256",
          "name": "tokenId",
          "type": "uint256"
        },
        {
          "internalType": "enum InvoiceToken.InvoiceStatus",
          "name": "newStatus",
          "type": "uint8"
        }
      ],
      "name": "setStatus",
      "outputs": [],
      "stateMutability": "nonpayable",
      "type": "function"
    },
    {
      "inputs": [
        {
          "internalType": "bytes4",
          "name": "interfaceId",
          "type": "bytes4"
        }
      ],
      "name": "supportsInterface",
      "outputs": [
        {
          "internalType": "bool",
          "name": "",
          "type": "bool"
        }
      ],
      "stateMutability": "view",
      "type": "function"
    },
    {
      "inputs": [],
      "name": "symbol",
      "outputs": [
        {
          "internalType": "string",
          "name": "",
          "type": "string"
        }
      ],
      "stateMutability": "view",
      "type": "function"
    },
    {
      "inputs": [
        {
          "internalType": "uint256",
          "name": "tokenId",
          "type": "uint256"
        }
      ],
      "name": "tokenURI",
      "outputs": [
        {
          "internalType": "string",
          "name": "",
          "type": "string"
        }
      ],
      "stateMutability": "view",
      "type": "function"
    },
    {
      "inputs": [],
      "name": "totalSupply",
      "outputs": [
        {
          "internalType": "uint256",
          "name": "",
          "type": "uint256"
        }
      ],
      "stateMutability": "view",
      "type": "function"
    },
    {
      "inputs": [
        {
          "internalType": "address",
          "name": "from",
          "type": "address"
        },
        {
          "internalType": "address",
          "name": "to",
          "type": "address"
        },
        {
          "internalType": "uint256",
          "name": "tokenId",
          "type": "uint256"
        }
      ],
      "name": "transferFrom",
      "outputs": [],
      "stateMutability": "nonpayable",
      "type": "function"
    },
    {
      "inputs": [
        {
          "internalType": "address",
          "name": "newOwner",
          "type": "address"
        }
      ],
      "name": "transferOwnership",
      "outputs": [],
      "stateMutability": "nonpayable",
      "type": "function"
    }
  ],
  "bytecode": "0x608060405234801562000010575f80fd5b50336040518060400160405280600d81526020016c4e7576657374496e766f69636560981b815250604051806040016040528060038152602001624e564960e81b815250815f9081620000649190620001a5565b506001620000738282620001a5565b5050506001600160a01b038116620000a457604051631e4fbdf760e01b81525f600482015260240160405180910390fd5b620000af81620000b6565b5062000271565b600680546001600160a01b038381166001600160a01b0319831681179093556040519116919082907f8be0079c531659141344cd1fd0a4f28419497f9722a3daafe3b4186f6b6457e0905f90a35050565b634e487b7160e01b5f52604160045260245ffd5b600181811c908216806200013057607f821691505b6020821081036200014f57634e487b7160e01b5f52602260045260245ffd5b50919050565b601f821115620001a057805f5260205f20601f840160051c810160208510156200017c5750805b601f840160051c820191505b818110156200019d575f815560010162000188565b50505b505050565b81516001600160401b03811115620001c157620001c162000107565b620001d981620001d284546200011b565b8462000155565b602080601f8311600181146200020f575f8415620001f75750858301515b5f19600386901b1c1916600185901b17855562000269565b5f85815260208120601f198616915b828110156200023f578886015182559484019460019091019084016200021e565b50858210156200025d57878501515f19600388901b60f8161c191681555b505060018460011b0185555b505050505050565b611788806200027f5f395ff3fe608060405234801561000f575f80fd5b5060043610610153575f3560e01c8063715018a6116100bf578063d896dd6411610079578063d896dd6414610335578063dae62c8e14610348578063e42a96e71461035b578063e985e9c51461036e578063f2fde38b14610381578063f42375b514610394575f80fd5b8063715018a6146102db5780638da5cb5b146102e357806395d89b41146102f4578063a22cb465146102fc578063b88d4fde1461030f578063c87b56dd14610322575f80fd5b80633a23cc0a116101105780633a23cc0a146101f957806342842e0e146102195780634e6d14051461022c5780636352211e146102a257806364ea3fc7146102b557806370a08231146102c8575f80fd5b806301ffc9a71461015757806306fdde031461017f578063081812fc14610194578063095ea7b3146101bf57806318160ddd146101d457806323b872dd146101e6575b5f80fd5b61016a610165366004611207565b6103a7565b60405190151581526020015b60405180910390f35b6101876103f8565b604051610176919061126f565b6101a76101a2366004611281565b610487565b6040516001600160a01b039091168152602001610176565b6101d26101cd3660046112b3565b6104ae565b005b6007545b604051908152602001610176565b6101d26101f43660046112db565b6104bd565b61020c610207366004611281565b61054b565b6040516101769190611348565b6101d26102273660046112db565b610634565b61028e61023a366004611281565b60086020525f908152604090208054600182015460028301546003840154600485015460058601546006909601549495939492936001600160a01b0392831693929091169160ff8082169161010090041688565b6040516101769897969594939291906113ba565b6101a76102b0366004611281565b610653565b6101d26102c3366004611411565b61065d565b6101d86102d636600461143b565b6106b7565b6101d26106fc565b6006546001600160a01b03166101a7565b61018761070f565b6101d261030a366004611454565b61071e565b6101d261031d3660046114a1565b610729565b610187610330366004611281565b610741565b6101d2610343366004611576565b6107b2565b6101d861035636600461159c565b61084c565b6009546101a7906001600160a01b031681565b61016a61037c3660046115f9565b6109f6565b6101d261038f36600461143b565b610a23565b6101d26103a236600461143b565b610a60565b5f6001600160e01b031982166380ac58cd60e01b14806103d757506001600160e01b03198216635b5e139f60e01b145b806103f257506301ffc9a760e01b6001600160e01b03198316145b92915050565b60605f805461040690611621565b80601f016020809104026020016040519081016040528092919081815260200182805461043290611621565b801561047d5780601f106104545761010080835404028352916020019161047d565b820191905f5260205f20905b81548152906001019060200180831161046057829003601f168201915b5050505050905090565b5f61049182610a8a565b505f828152600460205260409020546001600160a01b03166103f2565b6104b9828233610ac2565b5050565b6001600160a01b0382166104eb57604051633250574960e11b81525f60048201526024015b60405180910390fd5b5f6104f7838333610acf565b9050836001600160a01b0316816001600160a01b031614610545576040516364283d7b60e01b81526001600160a01b03808616600483015260248201849052821660448201526064016104e2565b50505050565b61058f60408051610100810182525f80825260208201819052918101829052606081018290526080810182905260a0810182905260c081018290529060e082015290565b5f8281526008602090815260409182902082516101008082018552825482526001830154938201939093526002820154938101939093526003808201546001600160a01b0390811660608601526004830154166080850152600582015460a0850152600682015460ff80821660c0870152929360e08601939104169081111561061a5761061a611314565b600381111561062b5761062b611314565b90525092915050565b61064e83838360405180602001604052805f815250610729565b505050565b5f6103f282610a8a565b6009546001600160a01b031633146106875760405162461bcd60e51b81526004016104e290611659565b5f9182526008602052604090912060040180546001600160a01b0319166001600160a01b03909216919091179055565b5f6001600160a01b0382166106e1576040516322718ad960e21b81525f60048201526024016104e2565b506001600160a01b03165f9081526003602052604090205490565b610704610bc1565b61070d5f610bee565b565b60606001805461040690611621565b6104b9338383610c3f565b6107348484846104bd565b6105453385858585610d06565b606061074c82610a8a565b505f61076260408051602081019091525f815290565b90505f8151116107805760405180602001604052805f8152506107ab565b8061078a84610e2e565b60405160200161079b92919061169b565b6040516020818303038152906040525b9392505050565b6009546001600160a01b031633146107dc5760405162461bcd60e51b81526004016104e290611659565b5f828152600860205260409020600601805482919061ff00191661010083600381111561080b5761080b611314565b0217905550817f2da7b23ca63c1eb969eee5fae4acb98186abecf5358b0354a82a5183ebca6b2a8260405161084091906116c9565b60405180910390a25050565b6009545f906001600160a01b031633146108785760405162461bcd60e51b81526004016104e290611659565b60078054905f610887836116d7565b9190505590506108978782610ebe565b604051806101000160405280878152602001868152602001858152602001886001600160a01b031681526020015f6001600160a01b031681526020018481526020018360ff1681526020015f60038111156108f4576108f4611314565b90525f82815260086020908152604091829020835181559083015160018201559082015160028201556060820151600380830180546001600160a01b039384166001600160a01b03199182161790915560808501516004850180549190941691161790915560a0830151600583015560c083015160068301805460ff90921660ff1983168117825560e086015193919261ffff191617906101009084908111156109a0576109a0611314565b0217905550905050866001600160a01b0316817fcbf2d87e0ed2db7e41d12a25e364aaa9e7c2d9e2b890a545f3f420035158b801886040516109e491815260200190565b60405180910390a39695505050505050565b6001600160a01b039182165f90815260056020908152604080832093909416825291909152205460ff1690565b610a2b610bc1565b6001600160a01b038116610a5457604051631e4fbdf760e01b81525f60048201526024016104e2565b610a5d81610bee565b50565b610a68610bc1565b600980546001600160a01b0319166001600160a01b0392909216919091179055565b5f818152600260205260408120546001600160a01b0316806103f257604051637e27328960e01b8152600481018490526024016104e2565b61064e8383836001610ed7565b5f828152600260205260408120546001600160a01b0390811690831615610afb57610afb818486610fdb565b6001600160a01b03811615610b3557610b165f855f80610ed7565b6001600160a01b0381165f90815260036020526040902080545f190190555b6001600160a01b03851615610b63576001600160a01b0385165f908152600360205260409020805460010190555b5f8481526002602052604080822080546001600160a01b0319166001600160a01b0389811691821790925591518793918516917fddf252ad1be2c89b69c2b068fc378daa952ba7f163c4a11628f55a4df523b3ef91a4949350505050565b6006546001600160a01b0316331461070d5760405163118cdaa760e01b81523360048201526024016104e2565b600680546001600160a01b038381166001600160a01b0319831681179093556040519116919082907f8be0079c531659141344cd1fd0a4f28419497f9722a3daafe3b4186f6b6457e0905f90a35050565b6001600160a01b038316610c685760405163a9fbf51f60e01b81525f60048201526024016104e2565b6001600160a01b038216610c9a57604051630b61174360e31b81526001600160a01b03831660048201526024016104e2565b6001600160a01b038381165f81815260056020908152604080832094871680845294825291829020805460ff191686151590811790915591519182527f17307eab39ab6107e8899845ad3d59bd9653f200f220920489ca2b5937696c31910160405180910390a3505050565b6001600160a01b0383163b15610e2757604051630a85bd0160e11b81526001600160a01b0384169063150b7a0290610d489088908890879087906004016116fb565b6020604051808303815f875af1925050508015610d82575060408051601f3d908101601f19168201909252610d7f91810190611737565b60015b610de9573d808015610daf576040519150601f19603f3d011682016040523d82523d5f602084013e610db4565b606091505b5080515f03610de157604051633250574960e11b81526001600160a01b03851660048201526024016104e2565b805160208201fd5b6001600160e01b03198116630a85bd0160e11b14610e2557604051633250574960e11b81526001600160a01b03851660048201526024016104e2565b505b5050505050565b60605f610e3a8361103f565b60010190505f8167ffffffffffffffff811115610e5957610e5961148d565b6040519080825280601f01601f191660200182016040528015610e83576020820181803683370190505b5090508181016020015b5f19016f181899199a1a9b1b9c1cb0b131b232b360811b600a86061a8153600a8504945084610e8d57509392505050565b6104b9828260405180602001604052805f815250611116565b8080610eeb57506001600160a01b03821615155b15610fac575f610efa84610a8a565b90506001600160a01b03831615801590610f265750826001600160a01b0316816001600160a01b031614155b8015610f395750610f3781846109f6565b155b15610f625760405163a9fbf51f60e01b81526001600160a01b03841660048201526024016104e2565b8115610faa5783856001600160a01b0316826001600160a01b03167f8c5be1e5ebec7d5bd14f71427d1e84f3dd0314c0f7b2291e5b200ac8c7c3b92560405160405180910390a45b505b50505f90815260046020526040902080546001600160a01b0319166001600160a01b0392909216919091179055565b610fe683838361112d565b61064e576001600160a01b03831661101457604051637e27328960e01b8152600481018290526024016104e2565b60405163177e802f60e01b81526001600160a01b0383166004820152602481018290526044016104e2565b5f8072184f03e93ff9f4daa797ed6e38ed64bf6a1f0160401b831061107d5772184f03e93ff9f4daa797ed6e38ed64bf6a1f0160401b830492506040015b6d04ee2d6d415b85acef810000000083106110a9576d04ee2d6d415b85acef8100000000830492506020015b662386f26fc1000083106110c757662386f26fc10000830492506010015b6305f5e10083106110df576305f5e100830492506008015b61271083106110f357612710830492506004015b60648310611105576064830492506002015b600a83106103f25760010192915050565b6111208383611191565b61064e335f858585610d06565b5f6001600160a01b038316158015906111895750826001600160a01b0316846001600160a01b03161480611166575061116684846109f6565b8061118957505f828152600460205260409020546001600160a01b038481169116145b949350505050565b6001600160a01b0382166111ba57604051633250574960e11b81525f60048201526024016104e2565b5f6111c683835f610acf565b90506001600160a01b0381161561064e576040516339e3563760e11b81525f60048201526024016104e2565b6001600160e01b031981168114610a5d575f80fd5b5f60208284031215611217575f80fd5b81356107ab816111f2565b5f5b8381101561123c578181015183820152602001611224565b50505f910152565b5f815180845261125b816020860160208601611222565b601f01601f19169290920160200192915050565b602081525f6107ab6020830184611244565b5f60208284031215611291575f80fd5b5035919050565b80356001600160a01b03811681146112ae575f80fd5b919050565b5f80604083850312156112c4575f80fd5b6112cd83611298565b946020939093013593505050565b5f805f606084860312156112ed575f80fd5b6112f684611298565b925061130460208501611298565b9150604084013590509250925092565b634e487b7160e01b5f52602160045260245ffd5b6004811061134457634e487b7160e01b5f52602160045260245ffd5b9052565b5f61010082019050825182526020830151602083015260408301516040830152606083015160018060a01b038082166060850152806080860151166080850152505060a083015160a083015260ff60c08401511660c083015260e08301516113b360e0840182611328565b5092915050565b88815260208101889052604081018790526001600160a01b0386811660608301528516608082015260a0810184905260ff831660c0820152610100810161140460e0830184611328565b9998505050505050505050565b5f8060408385031215611422575f80fd5b8235915061143260208401611298565b90509250929050565b5f6020828403121561144b575f80fd5b6107ab82611298565b5f8060408385031215611465575f80fd5b61146e83611298565b915060208301358015158114611482575f80fd5b809150509250929050565b634e487b7160e01b5f52604160045260245ffd5b5f805f80608085870312156114b4575f80fd5b6114bd85611298565b93506114cb60208601611298565b925060408501359150606085013567ffffffffffffffff808211156114ee575f80fd5b818701915087601f830112611501575f80fd5b8135818111156115135761151361148d565b604051601f8201601f19908116603f0116810190838211818310171561153b5761153b61148d565b816040528281528a6020848701011115611553575f80fd5b826020860160208301375f60208483010152809550505050505092959194509250565b5f8060408385031215611587575f80fd5b82359150602083013560048110611482575f80fd5b5f805f805f8060c087890312156115b1575f80fd5b6115ba87611298565b95506020870135945060408701359350606087013592506080870135915060a087013560ff811681146115eb575f80fd5b809150509295509295509295565b5f806040838503121561160a575f80fd5b61161383611298565b915061143260208401611298565b600181811c9082168061163557607f821691505b60208210810361165357634e487b7160e01b5f52602260045260245ffd5b50919050565b60208082526022908201527f496e766f696365546f6b656e3a2063616c6c6572206973206e6f7420657363726040820152616f7760f01b606082015260800190565b5f83516116ac818460208801611222565b8351908301906116c0818360208801611222565b01949350505050565b602081016103f28284611328565b5f600182016116f457634e487b7160e01b5f52601160045260245ffd5b5060010190565b6001600160a01b03858116825284166020820152604081018390526080606082018190525f9061172d90830184611244565b9695505050505050565b5f60208284031215611747575f80fd5b81516107ab816111f256fea2646970667358221220f252b9dee85b528df8061eaaa43214a2951852b106192b3cfe6ac13ce4399aa664736f6c63430008180033",
  "linkReferences": {},
  "deployedLinkReferences": {}
}